:020000042000DA
:100000000000032031B20020BDC40020E9C400205C
:10001000F9C400203DC500204DC5002000000000AF
:10002000000000000000000000000000612D012021
:100030005DC5002000000000C12D01205FC500202B
:10004000B5B10020B5B1002055C40020B5B10020E5
:10005000B5B100209DC400203588002061880020B3
:100060008D880020B9880020E588002085C2002006
:10007000A1C20020BDC20020D9C20020F5C20020CC
:1000800011C300202DC30020B5B1002065C500209C
:1000900063C50020B5B10020B5B100201189002052
:1000A000B5B1002031C200204DC2002069C200203D
:1000B00015C20020B5B10020B5B10020B5B10020B7
:1000C000B5B10020B5B10020B5B10020B5B1002018
:1000D000C1C50020E1C50020B5B10020B5B10020A8
:1000E000AD89002015C40020B5B10020B5B10020B5
:1000F0006BC5002067C5002035C4002081C50020E5
:10010000A1C50020B5B10020B5B10020B5B10020D7
:10011000B5B10020B5B1002071C5002049C3002051
:1001200065C3002081C300209DC30020B9C3002007
:0C013000D5C30020F5C30020B5B10020AD
:100140000348044B834202D0034B03B11847704766
:10015000B4D30120B4D30120000000000548064BB1
:100160001B1AD90F01EBA301491002D0034B03B1B5
:1001700018477047B4D30120B4D301200000000019
:1001800010B5064C237843B9FFF7DAFF044B13B1DF
:100190000448AFF300800123237010BDDCD301209D
:1001A00000000000F091012008B5044B1BB1044988
:1001B0000448AFF30080BDE80840CFE7000000002E
:1001C000E0D30120F091012053B94AB9002908BFBA
:1001D00000281CBF4FF0FF314FF0FF3000F06AB92C
:1001E000ADF1080C6DE904CE00F006F8DDF804E08E
:1001F000DDE9022304B070472DE9F047089D0C4665
:10020000002B4ED194468C458646B2FA82F262D9D2
:100210004AB1C2F12003914020FA03F30CFA02FC28
:10022000194300FA02FE4FEA1C471FFA8CF6B1FB95
:10023000F7F44FEA1E4307FB141143EA014304FBA2
:1002400006F199420AD91CEB030304F1FF3080F058
:100250001281994240F20F81023C6344591A1FFAFD
:100260008EF3B1FBF7F007FB101143EA014300FBEB
:1002700006F69E420AD91CEB030300F1FF3180F021
:10028000FC809E4240F2F980634402389B1B40EAA6
:10029000044000211DB1D3400022C5E90032BDE871
:1002A000F0878B4205D90DB1C5E900010021084650
:1002B000F5E7B3FA83F1002946D1A34202D3904275
:1002C000C0F0F080861A64EB03030120002DE6D015
:1002D000C5E90063E3E7002A40F09080A1EB0C043D
:1002E0004FEA1C481FFA8CF70121B4FBF8F64FEADD
:1002F0001E4308FB164443EA044307FB06F09842FA
:1003000008D91CEB030306F1FF3402D2984200F235
:10031000CD8026461C1A1FFA8EF3B4FBF8F008FBBA
:10032000104443EA044300FB07F79F4208D91CEB43
:10033000030300F1FF3402D29F4200F2B080204656
:10034000DB1B40EA0640A5E7C1F120068B4022FAFC
:1003500006F71F4320FA06FC04FA01F343EA0C03F4
:10036000F44000FA01F8380C4FEA1349B4FBF0FEF0
:100370001FFA87FC00FB1E4449EA04440EFB0CF9FB
:10038000A14502FA01F20AD93C190EF1FF3A80F0B8
:100390008480A14540F28180AEF1020E3C44A4EB82
:1003A00009041FFA83F9B4FBF0F300FB134449EA94
:1003B000044403FB0CFCA44507D93C1903F1FF30AE
:1003C00067D2A44565D9023B3C4443EA0E40A0FBFA
:1003D0000293A4EB0C049C42CE469C4651D34ED0D3
:1003E00055B1B8EB0E0364EB0C0404FA06F6CB40EF
:1003F0001E43CC40C5E90064002150E7C2F1200350
:1004000020FA03F10CFA02FC24FA03F394400C43A3
:100410004FEA1C4800FA02FE1FFA8CF7B3FBF8F013
:1004200008FB1031230C43EA014300FB07F199421A
:1004300008D91CEB030300F1FF362CD299422AD9CC
:10044000023863445B1AA4B2B3FBF8F108FB113322
:1004500044EA034401FB07F3A34208D91CEB04045C
:1004600001F1FF3613D2A34211D902396444E41AD0
:1004700041EA004139E70446F0E6084606E7C84588
:10048000AED2B9EB020E63EB070C0138A8E7314698
:10049000EDE7034699E73046D4E7D6467FE7634465
:1004A00002384DE70646234608460FE7023E6344FE
:1004B00030E700BF704700BF10F8012B11F8013B77
:1004C000012A28BF9A42F7D0D01A7047034613F882
:1004D000012B002AFBD1181A0138704708B538B132
:1004E0004FF0FF31D0F8B8000FF0AFF920B908BDD8
:1004F0004FF0010C0DF0D2F84FF0020C0DF0CEF8D9
:1005000008B528B1D0F8B8000FF0CAF920B908BD75
:100510004FF0010C0DF0C2F84FF0020C0DF0BEF8D8
:100520002DE9F04F8BB08146084605910492BDF845
:1005300050109DF854C09DF858A0DA1DC2F3CC02AB
:100540000792BAF1000F0CD0BCF1000F0CD102469B
:100550001A4492B2013292B205920893CDF824C0A7
:1005600051E0BCF1000F6FD0BAF1000F70D1049AC6
:100570000A4492B2013A92B204920893CDF824C090
:1005800041E089F892B00023009301233A463146B6
:10059000484617F0FCF8BAF1000F1FD00137BFB280
:1005A000640014F0FF0402D108F101080124013DA8
:1005B000ADB2B5B198F800302342E2D199F891304C
:1005C000002BE8D1039B89F892300023009301238C
:1005D0003A463146484617F0DAF8DCE70136B6B25B
:1005E000DEE7069989F892B0179B079A1344179390
:1005F000099BE3B1BAF1000F14D0059B01339BB204
:100600000593013989B239B399F892B0BBFA8BF0EE
:100610004009049F059E089DDDF85C80012403903D
:100620000691C6E7049B013B9BB20493E9E7BAF14C
:10063000000F04D0059B013B9BB20593E1E7049BAF
:1006400001339BB20493DCE70893CDF824C0DAE7CA
:100650000893CDF824C0D6E70BB0BDE8F08F08B5FD
:1006600008B1406B08BD4FF0020C0DF017F808B54B
:1006700040B103460268107C93F8383003FB00F069
:10068000C00008BD4FF0020C0DF008F808B548B1E5
:10069000C0F89810C0F89C20C0F8A030029BC0F8A9
:1006A000A43008BD4FF0020C0CF0F8FF08B510B1F3
:1006B000D0F8A00008BD4FF0020C0CF0EFFF08B519
:1006C00010B1D0F8A40008BD4FF0020C0CF0E6FF0A
:1006D00008B538B1034690F97E009A6D044B9A42F2
:1006E00004D008BD4FF0020C0CF0D8FF0130F8E741
:1006F00053C2012008B510B116F084FB08BD4FF0BD
:10070000020C0CF0CBFF08B510B117F0D0F808BD03
:100710004FF0020C0CF0C2FF08B510B116F0DCFE71
:1007200008BD4FF0020C0CF0B9FF000038B580B1E5
:100730000C460546012116F012FE74B1012C11D0B1
:10074000022C14D0032C17D10D49284616F0AAFE0E
:1007500038BD4FF0020C0CF0A1FF0A49284616F0F4
:10076000A1FEF5E70849284616F09CFEF0E7074988
:10077000284616F097FEEBE74FF0000C0CF08EFFCA
:100780002BCA012005C6012053C2012084CB0120C1
:1007900010B578B10446FFF7ADFF01212046FFF701
:1007A000B2FF01212046FFF7C1FF00212046FFF7DD
:1007B000B3FF10BD4FF0020C0CF070FF2DE9F041BB
:1007C0009DF81870DDF81C8090B10646B8F1000F56
:1007D00032D0D0F898000C18D6F89C105518012B80
:1007E0000AD0042B17D063B14FF0000C0CF056FF69
:1007F0004FF0020C0CF052FF4146304616F062FEFC
:10080000241A032F12D0042F18D0022F0BD04FF030
:10081000000C0CF043FF4146304616F053FEC0F387
:100820004F00241AEDE796F98E301D444346AAB2D4
:10083000A1B2304616F0FAFDBDE8F08196F98E308F
:1008400003EBD37305EB6305F0E708B518B131B1DD
:1008500016F038FE08BD4FF0020C0CF01FFF002010
:10086000F8E72DE9F04385B007469DF838908CB243
:1008700095B29EB2BDF83080A31905EB080292B282
:1008800000929BB22A46214617F026F898B1B9F19A
:10089000030F10D8DFE809F0021221300D9B0393FB
:1008A000002302930193CDF8008033462A46214667
:1008B0003846FFF735FE05B0BDE8F0830D9B039386
:1008C0000123029300230193CDF8008033462A468A
:1008D00021463846FFF724FEEDE70D9B03930023E6
:1008E000029301230193CDF8008033462A46214626
:1008F0003846FFF715FEDEE70D9B039301230293B5
:100900000193CDF8008033462A4621463846FFF74A
:1009100007FED0E72DE9F04387B060B31C460746D9
:100920006BB3D0F89830CE18D0F89C30D5184FF073
:100930000009CDF81490D0F8A8804946204600F070
:1009400061FF014605AA404615F0FEFE204600F074
:1009500049FF8046204600F04DFFCDF80890059BEA
:100960000193009043462A4631463846FFF779FF07
:1009700007B0BDE8F0834FF0020C0CF08FFE4FF093
:10098000020C0CF08BFE00B583B090B18446D0F819
:1009900098000144DCF89C000244BDF8100000906F
:1009A0009BB292B289B2604616F062F903B05DF86C
:1009B00004FB4FF0020C0CF071FE00B583B0A8B13F
:1009C0008446D0F898000144DCF89C000244BDF84D
:1009D00014000190BDF8100000909BB292B289B251
:1009E000604616F067F903B05DF804FB4FF0020CA7
:1009F0000CF054FE10B582B098B18446D0F89840FF
:100A00002144D0F89C0002442344049C0444A4B232
:100A100000949BB292B289B2604616F075FF02B0A4
:100A200010BD4FF0020C0CF039FE08B516F01DF9A0
:100A300008BD000038B558B10C46054690F8943012
:100A40008B421ED0032931D8DFE801F0061C242A8E
:100A50004FF0020C0CF022FE023BDBB2012B8CBFEC
:100A60000023012313493BB1D5F8A030D5F8A420C9
:100A7000C5F8A020C5F8A430284617F01AF985F863
:100A8000944038BD023BDBB2012B8CBF0023012315
:100A90000949E8E7012B8CBF002301230749E2E75E
:100AA000012B8CBF002301230549DCE74FF0000C2C
:100AB0000CF0F4FD90D0012078D001206CD0012002
:100AC00084D0012090F8940070472DE9F04782B05F
:100AD00048B1074616F0A1F93846FFF7FFFC01229E
:100AE0006AB31ABBFCE74FF0020C0CF0D7FDD8F844
:100AF000083003EBC40953F834A03846FFF7AFFDC4
:100B000005463846FFF7B3FD06463846FFF7DAFFDD
:100B10000246D9F8043031462846D04701340094C3
:100B2000009CD8F800300022A342E0D8002AD7D099
:100B300007F1AC0800230093CDF80480F0E73846B5
:100B4000FFF7DEFC02B0BDE8F087000038B5BC203E
:100B50000DF0C4FF04464FF4806015F0DFFDC4F8CB
:100B6000A80000200EF03DFEC4F8B8000025C4F82F
:100B7000AC50C4F8B050C4F8B4500B4B0B4A0C49FD
:100B8000204616F0DBFD84F89450204617F0B2F9A9
:100B90002946204617F0B7F92046FFF7ABFD20465F
:100BA000FFF793FF204638BDE17401202D75012029
:100BB00090D001202DE9F84381460F4616461C4689
:100BC0000A21104618F07AF90546D0B3AD1B30461D
:100BD0000FF0FCFA804629460FF0FEFB40460FF06E
:100BE0003AFB01464846FFF730FE0646042F2DD05B
:100BF000D7B3012F3DD12346B3421CD2F31A00EEE6
:100C0000103AB8EE400A07EE906AF8EE677A07EEFF
:100C1000105AF8EE476A87EEA67A80EE070A18F0B7
:100C200089FAFCEEC07A17EE903A23B1052B2CBF5F
:100C3000ED1A053D013D40460FF0F5FA2846BDE8A6
:100C4000F8833046FFF742FC3518BFE74846FFF708
:100C50002DFDB4EB500F01DC6300CDE74846FFF7F4
:100C600025FD001B4300C7E74846FFF71FFD031B98
:100C7000C2E74FF0000C0CF011FD2DE9F04F2DED07
:100C8000028B83B000284BD00D4616461F46044603
:100C9000B5EEC00AF1EE10FA46DBF7EE007AB4EEDC
:100CA000E70AF1EE10FA3FD8A3F1020B07EE90BA73
:100CB000F8EE677A27EE800A18F018FAB0EE408A4C
:100CC00000212046FFF71FFD05F1010806F101098B
:100CD0004FF0070ACDF800A05B464A464146204641
:100CE000FFF751FE01212046FFF70DFD032301937D
:100CF000092300933B46324629462046FFF75DFE16
:100D0000CDF800A0FCEEC87A17EE903A4A4641466C
:100D10002046FFF738FE03B0BDEC028BBDE8F08F34
:100D20004FF0020C0CF0BAFC4FF0020C0CF0B6FCC9
:100D30002DE9F04F85B099469DF8383003930F9C0C
:100D400050B188461646074654B1FFF7C1FC8246AB
:100D500025464FF0000B09E04FF0020C0CF09EFC12
:100D60004FF0020C0CF09AFC01251D442B786BB15E
:100D700043462A4649463846FFF71CFF0BF1010B54
:100D80002B182A5C0A2AEFD00025EEE7039B032BE1
:100D900009D0039B042B2CD10BF1FF3B0AFB0BFB6F
:100DA000A6EB5B0625E00BF1FF3B0AFB1B6620E090
:100DB0002246294623480FF029FA834658460FF069
:100DC0004AFA0190039B00934B463246414638460F
:100DD000FFF7F4FC58460FF026FA56443846FFF762
:100DE0006EFCB0422BDB6319625D0A2A25D0002419
:100DF0001C4423781BB34346224649463846FFF736
:100E0000D9FE0546235C0A2BD2D0002BD0D006EBAE
:100E10000A0B3846FFF753FC834506D9224629467C
:100E200009480FF0F3F98346C8E7013D22462946F9
:100E300006480FF0EBF98346C0E70124D8E705B078
:100E4000BDE8F08F3C930120449301205093012092
:100E500010B560B10C4601466CB14FF0FF32E06C4A
:100E60000EF0FAFB022120680FF030FD10BD4FF0AC
:100E7000010C0CF013FC4FF0010C0CF00FFC38B51A
:100E80000446026843689A4206D2A06823685A1C46
:100E9000226000EB830038BD1946082B38BF0821BB
:100EA0004D00B3EB410F0AD2B5F1804F09D2C90012
:100EB00080680DF017FE30B1A0606560E5E70AF0CC
:100EC00071F90020F7E70AF06DF910B50C461346EA
:100ED00038B1896851F823100160A268002142F8F6
:100EE0002310A068591C2268D21A013A920000EB24
:100EF000810100EB830018F073F82368013B236045
:100F000010BD00002DE9F04F89B004460591102076
:100F100008F042FA002848D00121A06CFFF78AFDB2
:100F20000D230093802300221146A06CFFF7AEFB37
:100F30000021A06CFFF7E7FB07250095092301229C
:100F40001146A06CFFF71FFD062600963A230322E8
:100F50002946A06CFFF717FD0095202301223D21B3
:100F6000A06CFFF710FD0096262303225921A06CE8
:100F7000FFF709FD0121A06CFFF7C5FB0121A06C63
:100F8000FFF753FDB24B00221146A06CFFF7C2FCE5
:100F90000021A06CFFF749FD04F1300900260696F8
:100FA000CDF81C907F27A04642E00021A06CFFF7FF
:100FB00041FDB5E75644F6B20236F6B2A7EB0A0792
:100FC000FFB2023FFFB20A2300930AF1020301229B
:100FD000791ED8F84800FFF759FB0021D8F84800DF
:100FE000FFF791FBD8F848B05846FFF75FFB039036
:100FF000D8F84800FFF763FB0090039B00221146DE
:101000005846FFF7C0FC0121D8F84800FFF77BFBEA
:1010100008230093534602223946D8F84800FFF7C8
:1010200035FBD8F84810204601F01AFC013506952A
:10103000069DD9F800309D4214D216F0800F11D1D0
:10104000D9F8083053F82540204601F06DFB002800
:10105000ECD0204601F022FB82460028AAD14FF0B6
:10106000080AA7E7444656B904F1240A0027069760
:10107000CDF81CA04FF0020BB146A0468CE00D232A
:101080000093F31C0022C6F17D01D8F84800FFF759
:10109000FDFA0121D8F84800FFF735FBD8F8488061
:1010A0004046FFF703FB0746A06CFFF708FB01254E
:1010B000019500903B46002211464046FFF77DFC1B
:1010C000D4F848904846FFF7F1FA871EA06CFFF766
:1010D000EDFAA0F10208A06CFFF7F1FA02380090D7
:1010E00043462A4639464846FFF784FCD4F84890E0
:1010F0004846FFF7E4FA871EA06CFFF7D7FAA0F185
:101100000208A06CFFF7DBFA0238009043463A462B
:1011100029464846FFF76EFCA6E70A230093B31C56
:1011200001220BF1FF31D8F84800FFF7AFFA002198
:10113000D8F84800FFF7E7FAD8F848300393184684
:10114000FFF7B4FA0490D8F84800FFF7B8FA009017
:10115000049B002211460398FFF715FC0121D8F8E3
:101160004800FFF7D0FA082300933346022259467D
:10117000D8F84800FFF78AFAD8F84810204601F05E
:101180006FFB3744FFB20237FFB25E44F6B202365D
:101190005FFA86FB01350695069DDAF800309D4220
:1011A00014D209EB07037F2B10DCDAF8083053F870
:1011B0002540204601F0B8FA0028EBD0204601F087
:1011C0006DFA06460028A8D10826A6E74446059BE6
:1011D00023B9002F40D109B0BDE8F08FDFF874804B
:1011E000404600F0FFFAC5B20A230093AB1C01226F
:1011F0000BF1FF31A06CFFF749FA0021A06CFFF75B
:1012000082FAD4F848904846FFF750FA0646A06C98
:10121000FFF755FA00903346002211464846FFF783
:10122000B2FB0121A06CFFF76EFA082300932B4656
:1012300002225946A06CFFF729FA434600221146C4
:10124000A06CFFF767FB7B19DBB20233DFB2C0E7AC
:1012500088C001207CC001200D230093FB1C0022CC
:101260001146A06CFFF712FAA76C3846FFF71EFA7A
:101270000646A06CFFF723FA01250195009033463E
:10128000002211463846FFF798FBD4F848804046C4
:10129000FFF70CFA861EA06CFFF708FA871EA06CF9
:1012A000FFF70DFA023800903B462A463146404689
:1012B000FFF7A0FBD4F848804046FFF700FA861EEF
:1012C000A06CFFF7F3F9871EA06CFFF7F8F902385E
:1012D00000903B46324629464046FFF78BFB7AE7B3
:1012E00070B582B005460368013B0093019001E0B0
:1012F000013C0094009C2B689C4208D2AB6853F8D8
:101300002460304601F010FA0028F1D000E00026F9
:10131000304602B070BD10B582B004460021806C2A
:10132000FFF788FB40230093802300221146A06C26
:10133000FFF7ACF904F13C00FFF7D2FF28B1A16C34
:1013400001F08EFA012002B010BD0020FBE710B5BD
:1013500082B004460021806CFFF76CFB33230093BE
:1013600080230D220021A06CFFF790F904F11800F2
:10137000FFF7B6FF10B9002002B010BDA16C01F05C
:101380006FFA0120F8E710B582B004460021806CA6
:10139000FFF750FB40230093802300221146A06CEE
:1013A000FFF774F904F10C00FFF79AFF10B9002061
:1013B00002B010BDA16C01F053FA0120F8E708B5A6
:1013C00010B1427A22B108BD4FF0010C0CF066F961
:1013D000012100680FF07AFAF5E708B530B14FF057
:1013E000FF3140680EF031FA20B908BD4FF0010C12
:1013F0000CF054F94FF0020C0CF050F908B520B184
:1014000040680EF04DFA20B908BD4FF0010C0CF009
:1014100045F94FF0020C0CF041F900002DE9F041C4
:1014200084B088B10D46044691B108790126864002
:10143000F2B24B79012B0FD0002B50D194F85430DD
:10144000134384F854300EE04FF0010C0CF026F9F1
:101450004FF0010C0CF022F994F85430F24352B2E0
:10146000134084F854302046FFF7B7FF637A13B176
:10147000A36D002B2DD0237A002B44D004F10C0057
:10148000FFF72EFF074694F85430F6B2B34302D16B
:101490006B7903B9A76517B1A36DBB4247D0D4F8E8
:1014A0005880B8F1000F02D06B79012B44D0287915
:1014B00001F0BAFA0646687901F0D2FA2B68039374
:1014C0000290019600974346274A284905200DF0CF
:1014D00099FA2046FFF792FF04B0BDE8F08194F836
:1014E00054301342BFD101F09FFA0446687901F0ED
:1014F000B7FA2B680193009023461D4A1B4905202B
:101500000DF080FAE8E704F13C00FFF7E9FE07463A
:101510000028B8D104F11800FFF7E2FE07460028C2
:10152000B1D104F10C00FFF7DBFE0746ABE729461B
:10153000384601F00DFACCE7287901F075FA064635
:10154000687901F08DFA2B68039302900196009759
:101550004346084A054905200DF054FA2946A06D76
:1015600001F0F6F9B5E700BF089401205892012078
:10157000589301209C93012010B540B10446FFF719
:101580002CFF637A3BB12046FFF738FF10BD4FF0C8
:10159000010C0CF083F8A06CFFF7FAF8237AC3B1C2
:1015A0002046FFF7F0FE04F11800FFF799FE38B16E
:1015B00001212046FFF7A6FCA06CFFF786FAE2E7C0
:1015C00004F13C00FFF78CFE08B10121F1E7002196
:1015D000EFE72046FFF79FFE0028EDD12046FFF7FA
:1015E000B6FE20B100212046FFF78CFCE4E7204640
:1015F000FFF7C9FEF6E770B582B098B10C46154604
:10160000064699B1042A15D8084601F07DF9042D43
:1016100003D00238C3B2012B10D93046FFF7DDFEEC
:10162000002114E04FF0020C0CF038F84FF0020CDF
:101630000CF034F84FF0020C0CF030F84FF0020CC4
:101640000CF02CF84FF0010C0CF028F801310429B3
:1016500014D801EB410080000830304404300023EE
:1016600000930190009B02689342EFD2826852F887
:101670002320A242E6D001330093F3E705EB4500B7
:101680008000083030440430FFF7F9FB00B10460FB
:101690003146204601F0C8F83046FFF7AFFE30462D
:1016A000FFF78DFE02B070BDF0B583B050B10D46AE
:1016B000074659B1FFF791FE0021284601F0B4F822
:1016C000002618E04FF0020C0BF0E8FF4FF0020C80
:1016D0000BF0E4FF21460020FFF7F7FB009A236898
:1016E0009A4207D2A36853F82230AB42F2D00132BB
:1016F0000092F3E70136042E09D806EB4604A40055
:1017000008343C440434002300930194E6E7BB6DA5
:10171000AB4207D03846FFF771FE3846FFF74FFE61
:1017200003B0F0BD0023BB65F4E7000010B55C20FA
:101730000DF0D4F904460FF085F8206000200EF07B
:1017400050F86060002109E001EB41039B00083381
:10175000234400225A609A60DA6001310429F3D9E7
:10176000FFF7F4F9A064082108460DF03DFFE0649E
:1017700004480EF0AFFA2065224603490EF0D6F871
:10178000204610BD60940120510E002030B583B07A
:10179000FFF7CCFF0546014611480EF079FA4FF0ED
:1017A000FF32002103200FF0FEF8044610F0020F74
:1017B0000DD114F0010FF2D001200FF0C9F8284626
:1017C000FFF7DAFEEBE769462846FFF727FE00221F
:1017D0006946E86C0DF07FFF0028F4D0E9E700BF10
:1017E0006092012008B508B1008808BD4FF0020CD6
:1017F0000BF054FF08B508B1408808BD4FF0020C4B
:101800000BF04CFF08B503798B4203D9836853F87A
:10181000210008BD4FF0020C0BF040FF38B5044624
:10182000002300E0013322689342FBD300252560AA
:10183000A0680DF055F901236360A56038BD38B587
:101840000446026843689A4206D2A06823685A1C7C
:10185000226000EB830038BD1946082B38BF0821F1
:101860004D00B3EB410F0AD2B5F1804F09D2C90048
:1018700080680DF037F930B1A0606560E5E709F0E8
:1018800091FC0020F7E709F08DFC0B68013B0B6031
:10189000024640B1886850F8233013608B680A68AC
:1018A000002143F82210704738B568B10C46054650
:1018B000C068053080000DF011F90461C560002298
:1018C00002604260826038BD4FF0020C0BF0E6FE11
:1018D00010B530B10446FFF7A1FF20460DF000F926
:1018E00010BD4FF0020C0BF0D9FE08B548B103460D
:1018F000C068C068884208D9043103EB81035A608C
:1019000008BD4FF0020C0BF0C9FE4FF0020C0BF0BB
:10191000C5FE00B583B0A8B100238DF80030019159
:1019200003689BB1826803F18043013B52F8232096
:10193000C3685B6853F8223002AA12E90600006906
:10194000984704E04FF0020C0BF0A8FE002003B013
:101950005DF804FB00B583B0C8B100230093019388
:1019600002238DF80030036873B1826803F180436D
:10197000013B52F82320C3685B6853F8223002AA67
:1019800012E906000069984703B05DF804FB4FF0C8
:10199000020C0BF083FE38B5F0B10D460446C26868
:1019A000D3688B421CD9036853B1816803F180432B
:1019B000013B51F82310936853F821300069984790
:1019C0002046FFF73CFF00B10560E3681B6853F851
:1019D00025302069984738BD4FF0020C0BF05EFEB1
:1019E0004FF0020C0BF05AFE30B583B028B104461C
:1019F000036833B9002003B030BD4FF0020C0BF088
:101A00004DFE00230193014601A8FFF73EFF236826
:101A100043B9E3689B68019A53F8223020699847DC
:101A20000020E8E7A26803F18043013B52F823500D
:101A3000E3689B68019A53F8223020699847E3686D
:101A40001B6853F82530206998470120D3E710B56B
:101A500082B0E8B1044600230093019301238DF87E
:101A6000003003687BB1826803F18043013B52F888
:101A70002320C3685B6853F8223002AA12E90600EB
:101A80000069984710B92046FFF7AEFF02B010BDBD
:101A90004FF0020C0BF002FE08B530200DF01EF8DE
:101AA0000022027708BD08B508B1016008BD4FF0FB
:101AB000020C0BF0F3FD08B508B1416008BD4FF012
:101AC000020C0BF0EBFD08B508B1016208BD4FF048
:101AD000020C0BF0E3FD08B508B1416208BD4FF000
:101AE000020C0BF0DBFD08B508B1C16208BD4FF078
:101AF000020C0BF0D3FD38B5A0B10446B2B1037BA4
:101B0000C3B9836AD3B9017301291BD002291ED13D
:101B1000101D0CF0E3FF054601200DF062FE286069
:101B2000A56238BD4FF0020C0BF0B8FD4FF0020C6F
:101B30000BF0B4FD4FF0020C0BF0B0FD4FF0020CB7
:101B40000BF0ACFD10460CF0C9FFA062E9E74FF0C6
:101B5000000C0BF0A3FD10B558B10446037B3BB15C
:101B6000022B0AD0A06A0CF0BBFF0023A3622373F0
:101B700010BD4FF0020C0BF091FD836A18680DF058
:101B80004CFEEFE710B530B10446FFF7E4FF204606
:101B90000CF0A6FF10BD4FF0020C0BF07FFD10B54E
:101BA00020B1027B022A05D0806A10BD4FF0020CE2
:101BB0000BF074FD846A4FF0FF3120680DF045FE94
:101BC00008B9201DF1E74FF0020C0BF067FD08B5D6
:101BD00018B1027B022A04D008BD4FF0020C0BF0B2
:101BE0005DFD836A18680DF05BFE0028F4D04FF0AD
:101BF000020C0BF053FD38B550B10C460546FFF70B
:101C0000E6FF24B12B6A13B1696A2846984738BDAC
:101C10004FF0020C0BF042FD38B568B10D4604469A
:101C2000036843B1FFF7BBFF014623682846984786
:101C30002046FFF7CCFF38BD4FF0020C0BF02EFD15
:101C400010B530B10B4644683CB1C16A1846A04794
:101C500010BD4FF0020C0BF021FD0020F8E710B58D
:101C600030B10B4684683CB1C16A1846A04710BD2C
:101C70004FF0020C0BF012FD0020F8E708B520B180
:101C8000026932B1C06A904708BD4FF0020C0BF0F8
:101C900005FD6FF00100F7E708B520B142690AB110
:101CA000C06A904708BD4FF0020C0BF0F7FC08B576
:101CB00020B182690AB1C06A904708BD4FF0020C9A
:101CC0000BF0ECFC82B081EAC122C368013B1340F7
:101CD000426952F8233001930023009302E0009000
:101CE00003680193019818B143688B42F7D108301B
:101CF00002B0704708B5436C0BB1C06C984708BD83
:101D000010B504460C200CF0E9FE28B10346226809
:101D100040F8042B236010BD09F044FA0346006824
:101D200000221A6038B110B504680CF0D9FE2046C4
:101D3000002CF9D110BD704770B505460E460368FA
:101D40008B4222D88B421FD243688B4209D2B1F119
:101D5000804F1CD2890080680CF0C4FEC8B1A86016
:101D60006E602B68B34216D2AA68002142F8231095
:101D70000133F7E7A86800EB8400FFF7CFFF0134D9
:101D80002B68A342F6D82E6070BD0C46F8E7002001
:101D9000E4E709F007FA2E60F6E738B504460025B7
:101DA00040F80C5BE560256165611021FFF7C4FF19
:101DB00065600A23A36038BDF0B583B0C468B4EB96
:101DC000440F07D20646650029460C30FFF7B4FFE2
:101DD000002022E009F0E6F9CCF80070019752F8F3
:101DE00021701F6042F82130019BABB15A6882EA32
:101DF000C222691E0A40A2420AD3011972691F68F1
:101E0000DDF800E0BEF1000FE6D0CEF80070E5E7A7
:101E100000931B680193E7E70130A0420AD273697F
:101E200003EB800C53F82030002BF5D001930023F6
:101E30000093D9E7A300064AA2FB03235B08B36023
:101E4000102D03D9AD08756003B0F0BD0025FAE789
:101E5000ABAAAAAA70B582B005460C46164681EA1E
:101E6000C122C368013B1340426902EB830052F870
:101E7000233001930023009302E000931B68019339
:101E8000019B2BB15A68A242F7D19E6002B070BD8F
:101E9000FFF736FF046046602B6801332B60AA68A9
:101EA0009342F3D92846FFF787FFEFE770B5064660
:101EB000C56869088C4608E01A461B68002BFBD1F0
:101EC000146040F80E300CF1010CAC450DD2706975
:101ED0004FEA8C0E50F82C40002CF4D0ACEB0103F0
:101EE00000EB830250F82330E8E706F10C00FFF71F
:101EF00023FF25F00103064AA2FB03235B08B3601E
:101F0000212D02D9ED08756070BD0025FBE700BFEB
:101F1000ABAAAAAA38B50546002405E0A86800EBDC
:101F20008400FFF7FBFE01342B68A342F6D80023A0
:101F30002B6038BD38B50C464B681D680B682BB15B
:101F40001D6060680CF0CCFD656038BD0560F8E789
:101F500030B583B0044681EAC122C368013B134017
:101F6000426902EB830052F823300193002300936F
:101F700002E000931B680193019B53B15A688A42A7
:101F8000F7D16946FFF7D6FF2368013B236001259F
:101F900000E00025226863689A4202D3284603B015
:101FA00030BD2046FFF782FFF8E710B50446FFF783
:101FB000B1FFA0680CF094FD012363600023A360CF
:101FC00010BD08B50B6B1BB101461846FFF724FE88
:101FD00008BD08B50B464FF0FF32014698680DF07A
:101FE0003BFB00B908BD4FF0020C0BF057FB08B5E6
:101FF00020B139B10A6B824208D008BD4FF0020C03
:102000000BF04CFB4FF0020C0BF048FB486900F062
:10201000E3FBF2E730B583B0054650200CF05EFDDF
:10202000044600F0EBFA60612246164900F098FB86
:1020300022461549606900F0B1FB0021606900F09B
:1020400049FB04F11800FFF7A8FE65600821102085
:102050000DF0CAFA0146A06000940C4B01226068A2
:102060000BF036FF042110200DF0BEFA0146E060AF
:102070000094074B012260680BF02AFF204603B052
:1020800030BD00BFC31F0020D31F00203D2500200E
:10209000B322002008B50BF06CFEFFF7BBFF012355
:1020A000037008BD10B50446006910B16169FFF7FF
:1020B000FBFAA369D3B904F12400FFF776FF606946
:1020C00000F0AAFAA16860680BF00EFFE168606892
:1020D0000BF00AFFA0680DF0A6FAE0680DF0A3FA75
:1020E00023783BB920460CF0FBFC10BD4FF0020CEE
:1020F0000BF0D4FA60680BF065FEF3E708B508B1A1
:10210000016408BD4FF0020C0BF0C8FA08B508B125
:10211000C16308BD4FF0020C0BF0C0FA08B528B13E
:102120000346007830B159649A6408BD4FF0020C40
:102130000BF0B4FA4FF0020C0BF0B0FA08B508B18E
:10214000C16408BD4FF0020C0BF0A8FA10B582B0C4
:1021500050B10446816C09B94FF0FF3123783BB987
:1021600060680CF0B3F80BE04FF0020C0BF096FA3D
:102170002346144A60680CF011FAF1E7012A17D0DF
:1021800094F83830E3B14FF0FF326946A0680DF0A3
:10219000A2FA9DF8042001239340D9B29DF80520AE
:1021A000002AEBD194F838300B4384F83830E7E755
:1021B00094F83820DB435BB2134084F83830DFE713
:1021C00002B010BDF51C002008B518B140680BF036
:1021D00065FE08BD4FF0020C0BF060FAF8B5F8B1DF
:1021E0000D4614460646FAB100F118073846FFF7C7
:1021F00069FDE8B9306908B1FFF7EFF822462946D2
:102200003846FFF727FE0C492046FFF75CFC3146B5
:102210002046FFF760FC306908B1FFF7EFF8F8BD22
:102220004FF0020C0BF03AFA4FF0020C0BF036FABA
:102230004FF0020C0BF032FAEF1F002038B580B1DE
:102240000C460546036983B999B1B2B1012A19D088
:10225000022A1CD1042241692046FFF7CCF92C61E7
:1022600038BD4FF0020C0BF019FA4FF0020C0BF0D6
:1022700015FA4FF0020C0BF011FA41692046FFF7F6
:10228000BAF9ECE741692046FFF7B5F9E7E74FF007
:10229000000C0BF003FA38B504460D46006B10B184
:1022A000FFF7DDFC20B9E36B13B12946E06C9847DA
:1022B00038BD10B582B079B103460C46C868984263
:1022C0000ED1002201A90DF006FA68B90199204645
:1022D000FFF7E1FF02B010BD4FF0010C0BF0DEF98B
:1022E0004FF0010C0BF0DAF94FF0020C0BF0D6F9BD
:1022F00000B583B0019148B14FF0FF3201A9C06829
:102300000DF0AAF930B903B05DF804FB4FF0020CF0
:102310000BF0C4F94FF0020C0BF0C0F938B5D0B196
:102320000D460446006B08B1FFF7C1FC2563F5B10B
:102330002B7F134AD55C606900F0E6FAA8420ED103
:10234000206BFFF7A9FC0121606900F0C3F9606907
:1023500000F042FA38BD4FF0020C0BF09FF929460D
:10236000606900F0B5FA002384F83830E8E700210E
:10237000606900F0AFF92046FFF726FFEAE700BFEB
:1023800024950120F8B520B30D460446006908B134
:10239000FFF723F804F1180729463846FFF792FCA7
:1023A0000668236BB34218D0636BB3421AD0294638
:1023B0003846FFF7CDFDC0B100213046FFF783FB63
:1023C00000213046FFF787FB206908B1FFF716F8B8
:1023D000F8BD4FF0020C0BF061F900212046FFF729
:1023E0009DFFE1E700236363E1E74FF0020C0BF090
:1023F00055F910B538B10446B1F1FF3F07D011F1DE
:10240000020F08D110BD4FF0020C0BF047F900216C
:10241000FFF784FFF6E71830FFF754FC20B101689E
:102420002046FFF77BFFEDE74FF0020C0BF036F98B
:102430002DE9F04184B004460D460879012383401C
:10244000D9B26A79D2B994F838200A4384F838208E
:1024500094F83820DBB29A4303D16B790BB9236B24
:102460006363266B16B1636B9E4225D0676B17B111
:102470006B79012B44D004B0BDE8F081012A13D060
:1024800094F838200A42E3D100F0CEFA0446687985
:1024900000F0E6FA2B68019300902346244A254970
:1024A00005200CF0AFFAE6E794F83820D94349B29A
:1024B0000A4084F83820CBE729463046FFF7C0FBB6
:1024C0000028D8D12B79052BD5D16B79023BDBB213
:1024D000012BD0D8206BFFF7D1FB014610F1020F82
:1024E0000AD1236C002BC6D0E06C98470028C2D1DB
:1024F0002046FFF769FEBEE72046FFF77AFFBAE7FE
:10250000287900F091FA8046687900F0A9FA2B68E2
:1025100003930290CDF8048000963B46064A054995
:1025200005200CF06FFA2946606BFFF789FBA2E7E4
:1025300070940120B4940120C494012010B582B09D
:1025400079B103460C46886898420ED1002269464C
:102550000DF0C1F868B969462046FFF769FF02B07F
:1025600010BD4FF0010C0BF099F84FF0010C0BF07F
:1025700095F84FF0020C0BF091F8000038B50329E4
:1025800013D805460C460379052B0ED8037813F0B3
:10259000030F09D101290CD92A7904EB44040A4B11
:1025A00003EB44039B5C2B7138BD4FF0020C0BF026
:1025B00075F8102006F0F0FE0028EDD02B79034AC4
:1025C000D35C2B71E8E700BF849501207C95012046
:1025D00038B50C46437A084AD55C102006F0DCFE7C
:1025E00028B11DB1012D02D1002500E001252946A9
:1025F0002046FEF71FFA38BD7895012010B51C2043
:102600000CF06CFA044600234372012020720DF096
:10261000E8F86060204610BD10B598B104464FF050
:10262000FF3140680DF011F980B9236893B96068F3
:102630000DF036F990B960680DF0EFF820460CF017
:102640004FFA10BD4FF0020C0BF028F84FF0020CBF
:102650000BF024F84FF0020C0BF020F84FF0020CB6
:102660000BF01CF838B568B10C4605464FF0FF3149
:1026700040680DF0EAF848B9AC7268680DF010F9DE
:1026800040B938BD4FF0020C0BF008F84FF0020CC7
:102690000BF004F84FF0020C0BF000F838B568B1FD
:1026A00004464FF0FF3140680DF0CFF850B9A57ADD
:1026B00060680DF0F5F848B9284638BD4FF0020CB7
:1026C0000AF0ECFF4FF0020C0AF0E8FF4FF0020CAA
:1026D0000AF0E4FF30B583B098B10D4604460221FC
:1026E00040680DF0B2F880B9237AAB4204D025726D
:1026F000206808B1FEF763FE60680DF0D1F803B002
:1027000030BD4FF0020C0AF0C9FF8F230093034B3A
:10271000034A044903200CF075F9E5E728950120E8
:10272000509501206C95012038B568B104464FF0F2
:10273000FF3140680DF089F850B9257A60680DF0D6
:10274000AFF848B9284638BD4FF0020C0AF0A6FF92
:102750004FF0020C0AF0A2FF4FF0020C0AF09EFFAD
:1027600070B578B10E46154604464FF0FF3140680B
:102770000DF06BF850B9E660256160680DF090F8D7
:1027800040B970BD4FF0020C0AF088FF4FF0020C08
:102790000AF084FF4FF0020C0AF080FF70B578B1A8
:1027A0000E46154604464FF0FF3140680DF04DF8D7
:1027B00050B96661A56160680DF072F840B970BDEE
:1027C0004FF0020C0AF06AFF4FF0020C0AF066FFAD
:1027D0004FF0020C0AF062FF10B582B070B10446EF
:1027E000022140680DF031F860B9206808B1237A01
:1027F0008BB960680DF054F802B010BD4FF0020CB8
:102800000AF04CFFB9230093044B054A0549032005
:102810000CF0F8F8E9E7FEF7D2FDEAE72895012089
:10282000509501206C95012038B568B10C460546DD
:102830004FF0FF3140680DF008F848B92C60686827
:102840000DF02EF840B938BD4FF0020C0AF026FF0B
:102850004FF0020C0AF022FF4FF0020C0AF01EFFAC
:1028600030B583B0C0B10D460446C9B102214068FD
:102870000CF0EBFFC0B92368FBB1E3683BB129461C
:102880002046FFF7A5FEE36821692846984760685F
:102890000DF006F803B030BD4FF0020C0AF0FEFE5A
:1028A0004FF0020C0AF0FAFECE230093054B064AC5
:1028B000064903200CF0A6F8DDE74FF0020C0AF001
:1028C000EDFE00BF28950120509501206C95012058
:1028D00038B568B10C4605464FF0FF3140680CF042
:1028E000B4FF48B96C7268680CF0DAFF40B938BDC3
:1028F0004FF0020C0AF0D2FE4FF0020C0AF0CEFEAE
:102900004FF0020C0AF0CAFE30B583B060B1044645
:10291000022140680CF099FF50B9657A60680CF0AC
:10292000BFFF284603B030BD4FF0020C0AF0B6FEE0
:10293000F5230093034B044A044903200CF062F88A
:10294000EBE700BF28950120509501206C950120F0
:1029500038B5E0B10D460446E9B14FF0FF314068AB
:102960000CF073FFD8B92368EBB1636953B120460B
:10297000FFF7CAFF01462846FFF700FE6369A16919
:102980002846984760680CF08BFF80B938BD4FF03F
:10299000020C0AF083FE4FF0020C0AF07FFE4FF0AB
:1029A000020C0AF07BFE4FF0020C0AF077FE4FF0AB
:1029B000020C0AF073FE00B583B09DF800306FF38F
:1029C00001038DF800304269009B62F39F0300937E
:1029D00003681B798DF80430037C0133DBB2037488
:1029E000037CDBB2022B06D0037CDBB2022B0AD8BD
:1029F00003B05DF804FB03238DF805306946C06819
:102A00000CF0E8FFF4E7037C013BDBB20374042322
:102A10008DF805306946C0680CF0DCFFE8E708B5C2
:102A200001210DF053FF08BD002300E00133094AE6
:102A300012689A420CD903EB4301074A02EB810268
:102A400012798242F2D1044A02EB810398687047FE
:102A50000248704758A80120B4A801209C95012085
:102A600004280CD8DFE800F0030D0507090006482C
:102A70007047064870470648704706487047064842
:102A800070470648704700BFA4950120B495012007
:102A9000BC950120C49501209C950120AC95012096
:102AA0002DE9F04F85B000AF0DF0CCFE78600CF052
:102AB00030FF0646014687480DF0EAF8864B1D6850
:102AC00005EB45036A46A2EBC3039D466C464FF0F7
:102AD00000081CE000229BF805309B1A18BF012358
:102AE00008EB480904EBC90989F80430022389F886
:102AF00005304A46012179480EF048F8C9F8080027
:102B0000C9F80C60002389F8103008F10108454528
:102B10001AD9734B4FEA480908EB480203EB820BC2
:102B200053F822A07A686F49504605F0C9FD09EBB9
:102B3000080344F833B0DAF800301A69BAF8043000
:102B40001A42C7D00122C6E74FF00109B7E00022C0
:102B500055E008EB480304EBC3035B79002B66D018
:102B600008EB480C04EBCC0C9CF80530013BDBB2C5
:102B70008CF805305BE008EB480304EBC3031B79DA
:102B8000DBB283422CD008EB480304EBC30C8CF877
:102B90000400387A6FF30100387254F833301B792F
:102BA0003B73914255D009F1010BCCF81490DCF83D
:102BB0001410BA6861F39F02BA609621DCF808002D
:102BC0000EF00CF8D94608EB480304EBC3031B795D
:102BD00083F001037B7307F1080130460CF0FAFE25
:102BE00008F10108454564D908EB480354F833302F
:102BF0001A681168096992881142A8D0012259798E
:102C0000914214BF01200020A3D008EB480304EB3D
:102C1000C3035B79DBB2032B09D808EB480C04EB48
:102C2000CC0C9CF805300133DBB28CF8053008EB96
:102C3000480304EBC3035B79002B9CD008EB4803EB
:102C400004EBC3035B79DBB2032B94D84FF0010A8A
:102C5000C6E708EB480304EBC3035969BA6861F39C
:102C60009F02BA6098680DF0D7FF02E001200BF0D8
:102C7000B9FD08EB480304EBC30398680DF0E6FFC9
:102C80000028F3D108EB480304EBC3031B7CDBB241
:102C9000012B06D908EB480304EBC30300221A7486
:102CA00091E702237B7307F1080130460CF092FE96
:102CB000F0E7BAF1000F06D001200BF093FD4FF0C2
:102CC0000008C2468EE74FF0FF32002101200DF0D0
:102CD0006AFEF4E76094012058A80120B72900207B
:102CE000B4A801201F2A0020837D23B1037F13B1E4
:102CF00090F8223043B9037D43B9837E43B990F8FD
:102D000020303BB9002070470020704701207047F9
:102D1000012070470120704782B007EE901A90EDB5
:102D20000B7AF8EEE77A67EE877AFCEEE77ACDED7C
:102D3000017A9DF8040002B0704782B007EE901A45
:102D400090ED0C7AF8EEE77A67EE877AFCEEE77A98
:102D5000CDED017A9DF8040002B0704700B585B052
:102D600029B18C46037833B105B05DF804FB4FF010
:102D7000010C0AF093FC01930293039303238DF853
:102D800008304FF0FF3201A9DCF800000CF064FCC1
:102D90000028E9D04FF0020C0AF080FC10B540206A
:102DA0000BF09CFE04460C2108200CF01DFC20605A
:102DB000224600211B480DF0E9FEA0604FF07E5333
:102DC0006363E362236347F23053A363012284F811
:102DD0003D200023A373E3732374082161742375DA
:102DE0006375A375E275A376E37623770222627793
:102DF00084F8203084F8213084F82230042384F8C9
:102E0000233084F8282008480CF064FF60602246D4
:102E100006490CF08BFD0649204600F083FC204655
:102E200010BD00BF592E002060940120352E0020D7
:102E3000A496012008B528B1084639B1054900F02B
:102E400071FC08BD4FF0010C0AF028FC4FF0010C9A
:102E50000AF024FCA496012008B518B1034900F03B
:102E600061FC08BD4FF0010C0AF018FC9C96012093
:102E700038B50446064D28460CF02CFF94F93C105A
:102E8000806C14F03FFC28460CF048FF38BD00BFB2
:102E90006092012008B5002008F04EF908BD08B581
:102EA00007F076FB00B908BD07F086FB07F098FB3A
:102EB000F9E708B528B10279012A06D8817042B134
:102EC00008BD4FF0010C0AF0E9FB4FF0010C0AF0CD
:102ED000E5FB407905F00AFEF2E700002DE9F0413C
:102EE00005460F460B681A6800260CE01179284643
:102EF000FFF712FF014605F10C00FFF7DAFF01367C
:102F00003B6853F82620002A61D01378033B0E2B30
:102F1000F5D801A151F823F0552F00206B2F002088
:102F2000812F0020FF2E0020FF2E0020FF2E0020EA
:102F3000FF2E0020ED2E0020FF2E0020FF2E00206F
:102F4000FF2E0020FF2E0020FF2E0020FF2E00204D
:102F5000972F00201179A9742846FFF7EEFE01464D
:102F600005F11200FFF7A5FFC9E711792976284678
:102F7000FFF7E3FE014605F11800FFF79AFFBEE7F1
:102F80001179A9772846FFF7D8FE014605F11E0002
:102F9000FFF78FFFB3E74FF00008B8F1020FAED88C
:102FA0004FEA480408EB480305EB4303997C2846A5
:102FB000FFF7C3FE01464444640010342C44A01CB7
:102FC000FFF777FF08F101085FFA88F8E5E7BDE849
:102FD000F08100BF08B548B10279012A0AD8012260
:102FE0000271C170407905F081FD08BD4FF0010C00
:102FF0000AF054FB4FF0010C0AF050FBF8B50646FE
:103000000F4600250FE005EB4504640010343444FE
:103010000234795D3046FFF790FE01462046FFF707
:10302000D9FF0135EDB2022DEDD9F8BD08B550B18B
:103030000279012A0BD80022C2700271817840798E
:1030400005F054FD08BD4FF0010C0AF027FB4FF0CE
:10305000010C0AF023FB10B50446402006F09CF951
:1030600000B114B1012008F067F810BD10B52DEDC6
:10307000028BB0EE408AF0EE608A0446402006F0F3
:103080008BF900B164B107F083FA18B91E2007F07C
:1030900059FA28B1F0EE680AB0EE480A07F0C4FA0F
:1030A000BDEC028B10BD000008B52DED028B90ED3C
:1030B0000E8AB8EE488A0BF092FB07EE900AF8EE03
:1030C000677ADFED066A86EEA77AC8EE077AFCEE2D
:1030D000E77A17EE900ABDEC028B08BD00007A4437
:1030E00030B52DED028B83B005460C46B0EE408A1C
:1030F00011F0400F15D114F0010F15D114F0020F8B
:1031000017D114F0040F19D114F0080F1BD114F0CB
:10311000100F1BD114F0200F1BD103B0BDEC028B9C
:1031200030BD05F03BFDE6E705F11200FFF77EFF3D
:10313000E4E705F11800FFF779FFE2E705F11E006B
:10314000FFF774FFE0E7FFF7A5FEE0E7FFF7A7FE54
:10315000E0E7D5ED0B0AB0EE480A13F07FFB40B173
:10316000AC682846FFF7A0FF014620460DF036FD6B
:10317000D3E7D5ED0B7A9FED077A67EE877AFCEE01
:10318000E77ACDED017A9DF80410082005F0AEFC39
:10319000E6E700BF00007F432DE9F04F2DED028BE5
:1031A00087B080460F460B681C68BE4B1B68ADF8A5
:1031B00014301B0C8DF81630D0ED0D8A90F83DB010
:1031C00090ED0B8A00264FF0010AB1460296019657
:1031D000354611E1237993B107EE903AF8EEE77A9C
:1031E00067EE887AFCEEE77ACDED037A9DF80C1055
:1031F00008F10C00FFF7EEFE46F02006F8E006F0BE
:10320000DF0608F10C00FFF711FFD8F808000DF0F9
:103210001DFD002800F0EC80D8F808000DF0FCFC43
:10322000E6E098F82430FF2B18D00133DBB288F8A1
:103230002430012B40F0DC80237907EE903AF8EE41
:10324000E77A67EE887AFCEEE77ACDED037A9DF8AF
:103250000C1008F10C00FFF72CFEC9E04FF0020C37
:103260000AF01CFA98F82430C3B1013BDBB288F8AD
:103270002430002B40F0BC80237907EE903AF8EE22
:10328000E77A67EE887AFCEEE77ACDED037A9DF86F
:103290000C1008F10C00FFF70CFEA9E0824A8349EC
:1032A00002200BF0AFFBA3E023798DF8143088F8EF
:1032B000133046F001064FF0010999E023798DF8AB
:1032C000153088F8193046F002064FF001098FE0FA
:1032D00023798DF8163088F81F3046F004064FF039
:1032E000010985E0D8ED0C7A9FED717A67EE877A57
:1032F000FCEEE77ACDED037AE388A2889DF80C1006
:10330000207A05F025FC46F047064FF001096FE0F2
:10331000207A05F059FC4FF0010969E005F03EFC08
:1033200006F0BF0646F0070662E023794BB1BBF119
:10333000000F02D146F008065AE00298FFF78BFE14
:10334000F8E7FFF7A7FDF5E7D4ED020A019860EE74
:10335000A80A94ED010AFFF789FE46F0100647E03F
:10336000FFF79DFD46F0100642E0B9F1000F0BD0CB
:103370004046FFF7B9FC58B905A94046FFF73EFEA5
:1033800046F007064FF0000960680BF058FA2FE08E
:1033900048494046FFF732FE64200BF050FAEBE755
:1033A000D4ED018A0123019322E094F808B00123AF
:1033B00002931DE094ED038A1AE003EB430208EB4D
:1033C0004202D17C03F118026A4402F8041C013362
:1033D000DBB2022BF1D946F007064FF0010907E0F6
:1033E0000023F6E74046FFF743FD01E04FF0000AF7
:1033F00001353B6853F8254064B32378122BF7D886
:1034000001A252F823F000BF2B33002049330020E3
:1034100061330020A9320020BD320020D1320020CB
:10342000E53200201D330020113300206B330020D3
:10343000D53100202332002065320020ED330020FA
:10344000A1330020AB330020B5330020E13300204E
:10345000E5330020B9F1000F14D04046FFF744FCDB
:10346000044605A94046FFF7C9FD46F007064CB1E2
:10347000BAF1000F09D00F494046FFF7BFFD6420A5
:103480000BF0DDF9BAF1000F04D107B0BDEC028BEF
:10349000BDE8F08FB0EE480A31464046FFF720FE07
:1034A000F3E700BF08920120CC950120789201201B
:1034B00000007F438896012070B586B004462048FE
:1034C0000CF008FC01F0C4F905461E4E33461E4AB6
:1034D0001E4904200BF096FA0BF04DF9EC46A06A59
:1034E000E16A226B636BACE80F00A06BE16BACE8A8
:1034F00003000BF057F9102302223146284601F051
:1035000009FA044638B118226946284601F041F903
:10351000182809D00024284601F05FF903460C4A18
:103520000A4902200BF06EFA284600F085FE284674
:1035300001F0C2F902480CF0F1FB204606B070BD64
:10354000A4920120EC950120089601207892012098
:103550001496012070B588B0064627480CF0BAFBD7
:1035600001F076F90446254D2B46254A25490420CD
:103570000BF048FA01231A462946204601F0CAF901
:10358000054638B1182202A9204601F0E2F81828B1
:1035900015D00025204601F020F903461A4A1949A2
:1035A00002200BF02FFA204600F046FE204601F0E4
:1035B00083F911480CF0B2FB284608B070BD9DF8A5
:1035C0000830022B06D002200090104A0D490BF063
:1035D00019FAE8E70BF0CFF80DF1080CBCE80F0082
:1035E000B062F16232637363BCE80300B063F163FD
:1035F0000BF0D8F8D7E700BFA4920120EC9501208A
:1036000024960120789201205096012034960120C2
:1036100010B50446FFF79EFF18B12046FFF728FCBF
:1036200010BD2046FFF748FFF7E7000038B5044615
:103630000B480CF04FFB054601F064F9224609499E
:103640000CF074F9284601F0D2F818B92046FFF7BB
:10365000DFFF38BD044A054905200BF0D3F9F8E730
:10366000A49201205D2D0020609601207892012017
:1036700010B584B0FFF792FB0446FFF7D7FFFFF7C2
:1036800009FCFFF70CFC002104F10C00FFF711FC12
:10369000002104F11200FFF70CFC002104F11800D6
:1036A000FFF707FC002104F11E00FFF702FC214692
:1036B0001B480CF0EDFA09E04FF0020C09F0EEFFA8
:1036C00001A92046FFF768FD039820BB4FF0FF32A9
:1036D00001A920680BF0FFFF0028EDD19DF808300C
:1036E000032BF1D801A252F823F000BFC13600200D
:1036F000FD360020073700200F37002001A92046A3
:10370000FFF7ECFBE0E72046FFF7D6FEDCE72046BC
:10371000FFF720FFD8E701210AF0F2F8D6E700BF53
:103720008892012000B585B078B191B10191002354
:103730008DF8083003934FF0FF3201A900680BF0B9
:103740008BFF50B905B05DF804FB4FF0020C09F097
:10375000A5FF4FF0020C09F0A1FF4FF0020C09F099
:103760009DFF000008B50249FFF7DCFF08BD00BF60
:103770007897012008B50249FFF7D4FF08BD00BFC4
:103780006C97012008B50249FFF7CCFF08BD00BFC8
:10379000F097012008B50249FFF7C4FF08BD00BF3C
:1037A0008897012008B50249FFF7BCFF08BD00BF9C
:1037B000BC970120132813D8DFE800F0151212146B
:1037C0000A0A15100C0E1212120A12121212120EFE
:1037D000032070470220704704207047052070477F
:1037E0000720704701207047012070470120704773
:1037F0000120704701207047012070470120704769
:10380000002070472DE9F04782B007460E4606F0CB
:10381000A5F90446D7F80890002514E0DFF8D4A0F5
:1038200050460CF057FAFFF79DFF50460CF076FA21
:1038300014E0002006F094F9C0B2B8B105233B7340
:1038400086BB002D39D0002D48D1002C46D006F083
:1038500079F98046002841D0002EDFD114F0010F05
:10386000E7D1012006F07CF9C0B2E6E70122D9F8E1
:103870000410D9F8000012F09BF8034620B10D287F
:1038800006D002233B73DBE710B938734546D7E710
:103890000D2B03D004233B734546D1E703233B7331
:1038A0004546CDE7DFF84C8040460CF013FAFFF7B1
:1038B00061FF40460CF032FAC3E74FF47A700AF029
:1038C000BEFF384601F06AF900902346074A0849CE
:1038D00002200BF097F8013CE4B2B4E7384601F05F
:1038E00081F9284602B0BDE8F08700BF2498012086
:1038F000409801208892012010B5C8B008461446AF
:10390000694612F066FB64B1DDE90023C4E90223D5
:10391000002323709DF80C3013F0100F01D0012309
:103920002370FFF747FF48B010BD38B50C4601467D
:10393000204601F08AF9856BC26B016943699A429E
:1039400008BF8D424FF00003A36063710CBF0120DC
:10395000184638BD10B50C460146204601F075F9F1
:10396000D0E904010023637110BD10B50C46014677
:10397000204601F06AF9D0E90E010023637110BD01
:1039800010B50C460146204601F05FF9002112F007
:10399000F6FAA060FFF70EFF6071B0FA80F0400900
:1039A00010BD000070B5C8B00C4615461E46014655
:1039B000204601F04AF9694612F0E1FAA060FFF7EB
:1039C000F9FE607165B1DDE90023C5E9022300233A
:1039D0002B709DF80C3013F0100F01D001232B70C9
:1039E0003EB10DF11A03084ABDF83011304602F01D
:1039F00033FE9DF81A300BB9032363716079B0FA76
:103A000080F0400948B070BD4C98012038B50C4694
:103A10000146204601F019F9054612F0A7FAA06008
:103A2000FFF7C8FE607128460BF05AF86079B0FACB
:103A300080F0400938BDF8B507460C4616465020C0
:103A40000BF04CF805463A460146204601F0F1F8E5
:103A50003146284612F035FAA060FFF7ABFE6071E0
:103A6000B0FA80F04009F8BD70B50C4615461E4608
:103A70000146204601F0E9F866B12A46002312F01B
:103A8000EDF8A060207AFFF795FE6071B0FA80F043
:103A9000400970BD826BC36BAA1843F1000312F09A
:103AA000DDF8A060EEE770B582B00C4615461E4604
:103AB0000146204601F0C9F80023ADF806300DF1AB
:103AC00006033246294612F004F8A060FFF772FEA2
:103AD0006071BDF8060002B070BD70B505460C46B9
:103AE0000146204601F0B1F8064612F0AEF8A0609B
:103AF000FFF760FE607130460AF0F2FF2A460021AF
:103B0000204601F096F86079B0FA80F0400970BD67
:103B10002DE9F04180460D4617469DF8182013F018
:103B2000010400D0012413F0020F01D044F002047C
:103B300012F0020F01D044F0100412F0040F01D073
:103B400044F0300412F0080F01D044F0040412F0E5
:103B5000100F01D044F008044FF414700AF0BEFFB7
:103B6000064642460146284601F063F82246394699
:103B7000304611F043FFA860FFF71CFE6871B0FAF1
:103B800080F04009BDE8F08110B58368012404731A
:103B900000225968104611F00BFF2046FFF70AFE7D
:103BA00010BD000070B504460D46FFF72BFE267BC6
:103BB0003EB9104A104904200AF024FF65B9304686
:103BC00070BD204600F0EAFF03460C4A0A49022075
:103BD0000AF018FF0726F1E709480CF07BF82EB130
:103BE000FFF7E0FD06480CF099F8E8E7FFF7CAFD9B
:103BF000F8E700BF64980120409801205098012008
:103C00008892012070B504460D468668337AEBB180
:103C100005F098FF00B970BD194A1A4904200AF04E
:103C2000F1FE0023337229462046FFF7BBFF05F063
:103C300089FF0028EFD1144A124904200AF0E2FE5D
:103C40002046FFF7A1FF01233372E4E705F07AFF76
:103C50000028E0D10D4A0B4904200AF0D3FE0123CD
:103C600033722046FFF790FF002DD4D0084C204639
:103C70000CF030F8FFF78EFD20460CF04FF8CAE745
:103C8000749801204098012084980120A098012078
:103C90008892012008B50121FFF7B4FF08BD01207B
:103CA000704730B58BB00C4685684822002120460D
:103CB00015F07AF9002204F11001686812F0AEF9EB
:103CC000054638B9002323706360A3604FF4007386
:103CD000A381E381684606F0FFF818BB9DF8143015
:103CE00084F83230BDF815209DF81730A4F8332041
:103CF00084F835300698C4F83600BDF81C30638768
:103D00009DF81E3084F83C309DF81F3084F83D301B
:103D1000089B2364BDF82630A4F846309DF8243073
:103D200084F844302846FFF745FD0BB030BD000055
:103D300010B5044603F0C6FA0C200AF0CFFE094B7A
:103D40000360094B436001230372A060074B63606B
:103D5000074B236005F0EEFE00212046FFF752FFDF
:103D600010BD00BF00D40120B0980120953C002078
:103D7000B4980120092806D8DFE800F01907090BDC
:103D80000D0F111315170B4870470B4870470B4860
:103D900070470B4870470B4870470B4870470B48FB
:103DA00070470B4870470B4870470B4870470B48EB
:103DB000704700BF00990120149901202C9901201F
:103DC00044990120589901206C9901207C99012087
:103DD00090990120A0990120BC99012010990120FF
:103DE00008B518B1007800F0010008BD4FF0020CD2
:103DF00009F054FC08B550B169B10B7C7BB1012BC3
:103E000012D00A4B00221146FCF784FD0CE04FF063
:103E1000010C09F043FC4FF0010C09F03FFC044B8E
:103E200000221146FCF776FD08BD00BF70C00120DE
:103E300064C0012070B540200AF050FE05461021F4
:103E400008200BF0D1FB28600BF063FDE863002431
:103E50000CE004EB440605EBC6060436304600F0E1
:103E600094FE304600F0BEFE0134E4B2012CF0D9DD
:103E7000281DFFF75DFF002685F83860FEF7BEFBC2
:103E8000044668630E48FDF7ADFCC1B22046FEF75C
:103E9000E9FB2A460B49686BFEF762FC3146686B0A
:103EA000FEF718FC084C20460BF014FF0222696B49
:103EB000FDF7A1FB20460BF031FF284670BD00BF87
:103EC00064C00120F53D00206092012030B583B030
:103ED0000546002401E00134E4B2012C0DD804EBC6
:103EE000440305EBC3039B68002BF4D004EB4400B0
:103EF00005EBC00004309847EDE72B7C012B0ED07A
:103F00002B7C3BB1022B05D0032B03D0042B01D01B
:103F1000052B02D195F83830C3B103B030BD95F808
:103F20003830002BECD0002185F83810686BFEF794
:103F3000D1FB174A174904200AF064FD01238DF8CC
:103F4000043001A9E86B0BF045FDD9E7012185F8A4
:103F50003810686BFEF7BEFB2B7C63B90E4A0D4927
:103F600004200AF04FFD00238DF8043001A9E86B0E
:103F70000BF030FDD1E7094A064904200AF042FD62
:103F800002238DF8043001A9E86B0BF023FDC4E790
:103F9000D49901203C920120E4990120F499012058
:103FA00010B584B0FFF746FF0446014609480BF000
:103FB0006FFE03E06946204601F081FB4FF47A7200
:103FC000694620680BF087FB0028F3D02046FFF7F6
:103FD0007DFFF3E7A492012008B50378033BDBB231
:103FE000012B00D908BD0A4621B10121104609F074
:103FF00087FCF7E74FF0010C09F050FB2DE9F04387
:104000008BB0002837D00F4616461D468046D0F8A4
:104010000C90B9F1000F32D009F04BFC0446CDF8FA
:10402000188007978DF820608DF821500CF00AFC5D
:104030000990022388F80430009400238DF804309E
:1040400006AB029304AB03934FF0FF326946D9F8F5
:1040500000000BF001FBB0B94FF0FF33002201214B
:10406000204609F08CFC204609F034FC9DF8100035
:104070000BB0BDE8F0834FF0020C09F00FFB4FF0DE
:10408000020C09F00BFB4FF0020C09F007FB2DE9C5
:10409000F0418AB01546002A3ED004460F4678B358
:1040A000D0F80C80B8F1000F2ED009F002FC0646C3
:1040B00006AB00220692079208920992069407978F
:1040C000ADF82050009002228DF80420029304AB3A
:1040D00003934FF0FF326946D8F800000BF0BCFAAA
:1040E000B0B94FF0FF3300220121304609F047FC00
:1040F000304609F0EFFBBDF810000AB0BDE8F081D2
:104100004FF0020C09F0CAFA4FF0020C09F0C6FA9F
:104110004FF0020C09F0C2FA1046EEE72DE9F0412B
:104120008AB01546002A3ED004460F4678B3D0F830
:104130000C80B8F1000F2ED009F0BBFB064606AB91
:104140000022069207920892099206940797ADF80A
:104150002050009003228DF80420029304AB0393B7
:104160004FF0FF326946D8F800000BF075FAB0B98D
:104170004FF0FF3300220121304609F000FC3046A9
:1041800009F0A8FBBDF810000AB0BDE8F0814FF0BF
:10419000020C09F083FA4FF0020C09F07FFA4FF09D
:1041A000020C09F07BFA1046EEE72DE9F0418AB0E7
:1041B000002834D00E460746D0F80C80B8F1000F26
:1041C00031D009F076FB044606AD00230693079331
:1041D00008930993069707960CF034FB0890012387
:1041E0003B7100940A238DF80430029504AB0393CD
:1041F0004FF0FF326946D8F800000BF02DFAB0B945
:104200004FF0FF3300220121204609F0B8FB204681
:1042100009F060FB9DF810000AB0BDE8F0814FF096
:10422000020C09F03BFA4FF0020C09F037FA4FF09C
:10423000020C09F033FA000070B58CB0002836D0BB
:104240000446C668002E36D009F033FB054608AB9D
:104250000022089209920A920B920894029001227D
:104260008DF80C20049306AB05934FF0FF3202A9A2
:1042700030680BF0F1F910BB4FF0FF330022012141
:10428000284609F07CFB284609F024FB236803F14B
:104290006043009304F160430B4A0C4906200AF086
:1042A000B1FB002323719DF818000CB070BD4FF0D6
:1042B000020C09F0F3F94FF0020C09F0EFF94FF09E
:1042C000020C09F0EBF900BF089A01201C9A0120AA
:1042D0002DE9F0418AB090B30E4615460746D0F856
:1042E0000C80B8F1000F2ED009F0E3FA044606ABBB
:1042F00000200690079008900990069707968DF881
:104300002050009404228DF80420029304AB039300
:104310004FF0FF326946D8F800000BF09DF9B0B9B4
:104320004FF0FF3300220121204609F028FB2046F0
:1043300009F0D0FA9DF810000AB0BDE8F0814FF006
:10434000020C09F0ABF94FF0020C09F0A7F94FF09D
:10435000020C09F0A3F970B58AB040B30546C668EF
:104360004EB309F0A6FA044606AB00220692079265
:10437000089209920695009005228DF80420029378
:1043800004AB03934FF0FF32694630680BF064F9D9
:10439000A8B94FF0FF3300220121204609F0EFFABF
:1043A000204609F097FADDE904010AB070BD4FF02C
:1043B000020C09F073F94FF0020C09F06FF94FF09D
:1043C000020C09F06BF970B58AB040B30546C668B7
:1043D0004EB309F06EFA044606AB0022069207922D
:1043E000089209920695009006228DF80420029307
:1043F00004AB03934FF0FF32694630680BF02CF9A1
:10440000A8B94FF0FF3300220121204609F0B7FA86
:10441000204609F05FFA9DF810000AB070BD4FF019
:10442000020C09F03BF94FF0020C09F037F94FF09C
:10443000020C09F033F970B58AB040B30546C6687E
:104440004EB309F036FA044606AB002206920792F4
:10445000089209920695009007228DF80420029395
:1044600004AB03934FF0FF32694630680BF0F4F869
:10447000A8B94FF0FF3300220121204609F07FFA4E
:10448000204609F027FADDE904010AB070BD4FF0BB
:10449000020C09F003F94FF0020C09F0FFF84FF09D
:1044A000020C09F0FBF870B58AB040B30546C66847
:1044B0004EB309F0FEF9044606AB002206920792BD
:1044C000089209920695009009228DF80420029323
:1044D00004AB03934FF0FF32694630680BF0BCF831
:1044E000A8B94FF0FF3300220121204609F047FA16
:1044F000204609F0EFF99DF810000AB070BD4FF0AA
:10450000020C09F0CBF84FF0020C09F0C7F84FF09D
:10451000020C09F0C3F8000070B58CB0002836D04A
:104520000446C668002E36D009F0C3F9054608AB2C
:104530000022089209920A920B92089402900B2290
:104540008DF80C20049306AB05934FF0FF3202A9BF
:1045500030680BF081F810BB4FF0FF3300220121CF
:10456000284609F00CFA284609F0B4F9236803F14B
:104570006043009304F160430B4A0C4906200AF0A3
:1045800041FA002323719DF818000CB070BD4FF064
:10459000020C09F083F84FF0020C09F07FF84FF09D
:1045A000020C09F07BF800BF289A01201C9A012018
:1045B0002DE9F0438BB080B3884617461D4606466A
:1045C000D0F80C90B9F1000F2BD009F072F9044625
:1045D0000696CDF81C800897ADF8245000900C2367
:1045E0008DF8043006AB029304AB03934FF0FF3217
:1045F0006946D9F800000BF02FF8B0B94FF0FF333F
:1046000000220121204609F0BAF9204609F062F99A
:104610009DF810000BB0BDE8F0834FF0020C09F0DC
:104620003DF84FF0020C09F039F84FF0020C09F098
:1046300035F82DE9F0418AB070B30F461646804632
:1046400009F037F9044606AD002306930793089353
:104650000993069707960CF0F5F8089000940F233D
:104660008DF80430029504AB03934FF0FF32694696
:10467000D8F800000AF0F0FF90B94FF0FF330022A5
:104680000121204609F07BF9204609F023F99DF825
:1046900010000AB0BDE8F0814FF0020C08F0FEFFF8
:1046A0004FF0020C08F0FAFF00B585B038B16A4649
:1046B000FFF7BFFF38B1002005B05DF804FB4FF0F5
:1046C000020C08F0EBFF6846FFF78AFB08B10020F8
:1046D000F2E70120F0E7F0B58BB050B30E46074685
:1046E00009F0E7F8044606AD002306930793089304
:1046F000099306960CF0A6F80790009410238DF805
:10470000043002956B4403934FF0FF3269463868DA
:104710000AF0A2FF88B94FF0FF33002201212046A2
:1047200009F02DF9204609F0D5F89DF810000BB0DE
:10473000F0BD4FF0020C08F0B1FF4FF0020C08F092
:10474000ADFF08B508B1407908BD4FF0020C08F084
:10475000A5FF2DE9F8430746894690460024A8EBBB
:1047600004064FF6FF739E4228BF1E46B2B209EB05
:1047700004013846FFF78BFC054604443846FFF732
:10478000E0FF18B9AE4201D1A045E8D12046BDE80E
:10479000F8832DE9F843E0B18946174680460024A6
:1047A0003E1B4FF6FF739E4228BF1E46B2B209EB76
:1047B00004014046FFF7B2FC054604444046FFF7BB
:1047C000C0FF18B9AE4201D1A742E9D12046BDE8E9
:1047D000F8834FF0020C08F061FF08B518B140797A
:1047E000FFF7C8FA08BD4FF0020C08F057FF30B5CC
:1047F0008BB028B3054609F05CF8044606AB0022EE
:104800000692079208920992009016228DF80420D1
:10481000029304AB03934FF0FF32694628680AF015
:104820001BFF88B94FF0FF3300220121204609F019
:10483000A6F8204609F04EF89DF810000BB030BDE8
:104840004FF0020C08F02AFF4FF0020C08F026FF90
:1048500038B580B1054610200AF040F9044600231F
:104860000371C56000F16043054A064906200AF05D
:10487000C9F8204638BD4FF0020C08F00FFF00BF0A
:104880003C9A01201C9A012008B520B1007900381B
:1048900018BF012008BD4FF0020C08F0FFFE08B55C
:1048A00028B10079012814BF0020012008BD4FF075
:1048B000020C08F0F3FE000010B570B10446FFF7DB
:1048C000E3FF70B904F160430C4A0D4906200AF079
:1048D00099F820460AF004F910BD4FF0020C08F0D8
:1048E000DDFE2046FFF7DBFF18B12046FFF714FE80
:1048F000E8E72046FFF7A0FCE4E700BF509A01205C
:104900001C9A012008B508B1C06B08BD4FF0020C1D
:1049100008F0C4FE2DE9F04782B008B30D461746F3
:104920009846044608F0C5FF0646E068FFF7EAFF30
:1049300032461A490AF0FAFF824643463A46294669
:104940002046FFF75BFB814670B96379092B0BD1D9
:104950004FF0FF3300220121304609F010F8ECE758
:104960004FF0020C08F09AFEE068FFF7CBFF5146CB
:104970000BF002F8304608F0ADFF236803F1604306
:104980000195009304F16043054A064906200AF0A8
:1049900039F8484602B0BDE8F08700BFD93F002093
:1049A000649A01201C9A01202DE9F04182B0E8B1FF
:1049B0000D46044608F07DFF0646E068FFF7A2FFBB
:1049C000324619490AF0B2FF804629462046FFF7D1
:1049D000ECFB074670B96379092B0BD14FF0FF331D
:1049E00000220121304608F0CAFFEEE74FF0020C2A
:1049F00008F054FEE068FFF785FF41460AF0BCFF6F
:104A0000304608F067FF236803F160430195009387
:104A100004F16043054A0649062009F0F3FF3846D1
:104A200002B0BDE8F08100BFD93F00207C9A012090
:104A30001C9A012008B530B1FFF74DFE48B103289C
:104A400005D0002006E04FF0020C08F027FE012000
:104A500000E0012008BD00002DE9F04383B048B11B
:104A60000F461646984681461C480BF0CFFB05467C
:104A700000240EE04FF0020C08F010FE0134A4B246
:104A8000CDF80480009433463A46154928460BF089
:104A900012FC28460BF0DFFB002201464846FFF7D8
:104AA000C8FD0028EAD034B13046FBF70FFD9DF871
:104AB0002C3083420AD832460A490A980BF0FBFB95
:104AC00028460BF0B0FB03B0BDE8F0832346324626
:104AD00005490A980BF0EFFBF2E700BF949A01201A
:104AE0009C9A01204C980120A89A012082B084460B
:104AF0000B6901930023009302E000900368019387
:104B0000019838B1011D43681A68DCF800309A42F8
:104B1000F3D1084602B0704710B50446102009F0E2
:104B2000DDFF28B10346226840F8042B236010BD46
:104B300006F038FB10B504460023036043600BF019
:104B40002DFBA06010BD10B5FFF7E6FF20B10446B5
:104B5000FFF7F0FF204610BD0024FBE708B5806892
:104B60000BF061FB08BD38B50C464B681D680B683F
:104B70004BB11D6060680430FFF7F0FF606809F01A
:104B8000AFFF656038BD0560F4E700238360012254
:104B9000027303617047007B70470000037B052BA5
:104BA00004D8DFE803F00F0507090B0D064870472E
:104BB00006487047064870470648704706487047E1
:104BC0000648704706487047B09A0120BC9A0120F9
:104BD000C89A0120D49A0120E49A0120F49A012075
:104BE000B89A012010B5044604F06EFD606110BD56
:104BF0004069704708B5FFF779FF003818BF0120FA
:104C000008BD30B583B005460B69019300230093BE
:104C100002E0009423680193019C3CB12946E068BE
:104C20000BF022FB0028F4D1012000E0002003B0AB
:104C300030BD10B50C461146FFF758FF08B144606F
:104C400010BD4FF0020C08F029FD08B5FFF74EFF2C
:104C500008B1406808BD4FF0020C08F01FFD38B5E0
:104C600004460D4602F11000FFF76DFF206004605E
:104C7000294680680BF0F4FA38BD10B582B08C4636
:104C80000B6901930023009302E000931B680193DA
:104C9000019B33B15A68146802689442F5D101242B
:104CA00000E0002414B9204602B010BD69460CF1A2
:104CB0001000FFF758FFF6E70369002001E001301C
:104CC0001B68002BFBD17047B0FA80F04009704799
:104CD00008B50430FFF75FFF034610B1012800D08C
:104CE0000723184608BD000038B505460BF0B3FA97
:104CF000044628460BF0DDFA042802D923792F2B2D
:104D000013D104220D49204614F0FBF878B1042297
:104D10000B49204614F0F5F858B104220949204601
:104D200014F0EFF838B1032002E0032000E0002087
:104D300038BD0120FCE70220FAE700BF009B0120FC
:104D4000089B0120109B0120F8B505460E4617462A
:104D50000846FFF7C9FF0446FFF7B6FFF0B1022C83
:104D60000BD0BCB904EB440405EBC4040434204666
:104D7000FFF711FFA0B93C60F8BD0A4A0A490320B9
:104D800009F040FE094B0422002130460BF0CBFA1B
:104D90000024E7E74FF0010C08F080FC0620EBE769
:104DA0000120E9E7189B01203C920120009B012093
:104DB000F0B583B006460C4617460846FFF794FF49
:104DC00005463846FFF790FF854202D0002003B029
:104DD000F0BD01AA21463046FFF7B6FF0028F5D105
:104DE000019B1B689D6C20460BF035FA0446384643
:104DF0000BF031FA01462046A847E8E710B50BF062
:104E00002AFA0446FBF762FB042894BF2018201DF1
:104E100010BDF0B583B00D46144601AAFFF794FF0C
:104E200008B103B0F0BD019E33689F6B2846FFF7C1
:104E3000E5FF014622463046B847F2E770B582B03A
:104E40000C4601AAFFF780FF08B102B070BD0198BF
:104E5000FFF7C8FE019D2B681E6C2046FFF7CEFFB2
:104E600001462846B047F0E770B582B00C4601AA6B
:104E7000FFF76AFF08B102B070BD01992046FFF745
:104E8000C0FE08B10920F6E70198FFF7ABFE019DCF
:104E90002B68DE6B2046FFF7B1FF01462846B0477E
:104EA000E9E72DE9F04182B00F4616461D4601AAFA
:104EB000FFF74AFF10B102B0BDE8F081019C236802
:104EC000D3F844803846FFF799FF01462B46324617
:104ED0002046C047EFE72DE9F04107460E46002483
:104EE000A04601E00134E4B2012C0BD804EB4405E8
:104EF00006EBC50529463846FFF77CFE0028F1D0B1
:104F0000A846EFE74046BDE8F081F8B50C461646E6
:104F10001D46011D2046FFF7DEFF30B103689F6884
:104F20002B4632462146B847F8BD04236371FBE7A0
:104F30002DE9F0410C4617461D46011D2046FFF79E
:104F4000CAFF60B10646FFF74DFE3368D3F80C8008
:104F50002B463A4621463046C047BDE8F08104233F
:104F60006371FAE7F8B50C4616461D46011D20464A
:104F7000FFF7B1FF30B103681F692B463246214667
:104F8000B847F8BD04236371FBE710B50C46011D5B
:104F90002046FFF7A0FF20B10268526921469047E2
:104FA00010BD042363710146FAE738B50C46011DB4
:104FB0002046FFF790FF40B10546FFF713FE2B6830
:104FC0009B6921462846984738BD04236371FBE757
:104FD00038B50C46011D2046FFF77DFF40B1054660
:104FE000FFF700FE2B681B6A21462846984738BD0C
:104FF00004236371FBE710B50C46011D2046FFF743
:105000006AFF20B10268D2692146904710BD04238F
:1050100063710146FAE710B50C46011D2046FFF703
:105020005AFF20B10268526A2146904710BD0423FE
:105030006371FBE730B583B0144601AAFFF784FE25
:10504000054610B1284603B030BD0198FFF7D0FDEA
:105050002060F7E710B5044606E020460BF029F97A
:10506000411E20460BF0B8F9034920460BF0A4F985
:105070000028F2D110BD00BF809B012038B5051D6E
:105080002846FFF788FD0446012801D1204638BD97
:105090002846FEF704FE04462846FFF7A3FDF5E781
:1050A00010B5041D2046FFF776FD012800D110BD84
:1050B0002046FFF701FE08B10520F8E72046FEF77D
:1050C00063FD2046FFF78EFD0020F0E738B5041D94
:1050D0002046FFF760FD012802D00125284638BD93
:1050E00001212046FEF75EFD05462046FFF77AFDCA
:1050F000F4E738B50D46041D2046FFF74CFD0128A6
:1051000000D138BD29462046FEF7CBFDF9E770B542
:1051100084B00D4614461E4603AA2146FFF714FE2E
:10512000687110B1002004B070BD03992046FFF7EC
:1051300068FD18B109236B710020F4E716F0020F27
:1051400012D1039A21462846FFF789FD2046FFF732
:1051500055FE0246039803681C689DF820300093B2
:1051600033462946A047DEE70398FFF73BFDE8E713
:10517000F0B583B007460C46011D2046FFF7ABFE95
:1051800098B1064603685B68214698470546314654
:105190002046FFF772FD03238DF8043001A9F86B58
:1051A0000AF018FC284603B0F0BD04236371002503
:1051B000F8E7F0B583B00D46144601AA2146FFF783
:1051C000C3FD687110B1002003B0F0BD0199204605
:1051D000FFF717FD18B109236B710020F4E7019A5E
:1051E00021462846FFF73BFD019E33689F6A204613
:1051F000FFF704FE024629463046B847E4E7F0B51B
:1052000083B007460C46011D2046FFF764FEA0B19F
:1052100006460368DB6A2146984705463146204624
:10522000FFF72BFD04238DF804300DEB0301F86B21
:105230000AF0D0FB284603B0F0BD042363710025BB
:10524000F8E7F0B583B00C4616461D46011D204612
:10525000FFF741FE50B103681F6BBDF8203000938B
:105260002B4632462146B84703B0F0BD0423637194
:10527000FAE710B50C46011D2046FFF72CFE20B1C1
:105280000268526B2146904710BD04236371FBE70F
:105290002DE9F04180460C4617461E463D49204602
:1052A0000BF079F8C0B33C480AF090FF0546384649
:1052B0000BF0C6FB014628460BF0BFF828460AF063
:1052C000CAFF03460522002120460BF02CF826B920
:1052D00028460AF0A8FFBDE8F08100222946404692
:1052E000FFF797FD0028F3D02C4928460AF0BAFFB3
:1052F00029464046FFF7A2FD294928460BF09DF8B4
:1053000038460BF09DFB014628460BF096F82946DF
:105310004046FFF793FDDBE7224920460BF03BF8C0
:10532000B8B121480AF052FF054638460BF088FB19
:10533000014628460BF081F828460AF08CFF034608
:105340000722002120460AF0EEFF28460AF06BFFF4
:10535000C1E7164920460BF01EF80028BBD0144DBB
:105360002B460422002120460AF0DDFF28460AF0E1
:105370002DFF0446002201464046FFF74AFD18B9BA
:1053800020460AF050FFA6E721464046FFF756FDAB
:10539000F6E700BF409B0120489B0120589B01205D
:1053A000809B0120689B0120709B0120089B0120AD
:1053B000849B01202DE9F04182B005460C460B7913
:1053C000192B36D8DFE813F01A003C0043004C00DC
:1053D00055005E00660074006D007C00830098003C
:1053E0009F00AB00B200C700DC00EF0002016001CB
:1053F00065016F01760118016A011F018B68586809
:105400000AF0E4FE0646A2680123D2680146284657
:10541000FFF73EFFA268E768137A1168527A00929C
:1054200032462846FFF773FE387016B130460AF050
:10543000FAFE0121206808F063FA02B0BDE8F081AD
:105440008B68CE681968FFF793FE3070F1E78968C2
:10545000E6680B894A680968FFF757FD3080E8E77E
:105460008968E6680B894A680968FFF761FD308042
:10547000DFE78968E6680B7A4A680968FFF772FD1A
:105480003070D6E78B68CE681968FFF77EFDC6E9F5
:105490000001CEE78B68CE681968FFF786FD307093
:1054A000C7E78B68CE681968FFF792FD3070C0E7D8
:1054B0008B68CE681968FFF79EFDC6E90001B8E762
:1054C0008B68CE681968FFF7A6FD3070B1E78B686E
:1054D00058680AF07BFE0646A268012392680146DE
:1054E0002846FFF7D5FEA368E768324619682846C4
:1054F000FFF75FFE387098E78B68CE681968FFF792
:105500007EFE307095E78868CE68836842680168DF
:10551000808900902846FFF794FE307089E78B68F9
:10552000CE681968FFF7A5FE307082E78B681868AF
:105530000AF04CFE0646A2680023926801462846FF
:10554000FFF7A6FEA368E7685A6831462846FFF7CA
:1055500071FD387069E78B6818680AF037FE0646F7
:10556000A2680023926801462846FFF791FEA368CF
:10557000E7685A6831462846FFF74BFC387054E715
:105580008B6818680AF022FE0646A268002352685B
:1055900001462846FFF77CFEE76831462846FFF7BC
:1055A00063FC387041E78B6818680AF00FFE064606
:1055B000A2680123526801462846FFF769FEE768A2
:1055C00031462846FFF73AFC38702EE78B6818689A
:1055D0000AF0FCFD0646A2680023D2680146284670
:1055E000FFF756FEA268E76893685268314628467E
:1055F000FFF757FC387018E7896801234A68096883
:10560000FFF746FE15E78B6818680AF0DFFD0746CE
:10561000A36858680AF0DAFD06463846FFF71AFD17
:105620003046FFF717FDA2680023D26839462846A6
:10563000FFF72EFEA2680023D26831462846FFF706
:1056400027FEA3681B7A7BB9D4F80C803246394612
:105650002846FFF7ADFB88F8000038460AF0E3FD66
:1056600030460AF0E0FDE4E62F2138460AF00EFE4F
:105670002F2130460AF00AFE38460AF01AFE01468B
:1056800030460AF0A9FEDFE7CE68FFF7F7FC30707E
:10569000CFE6CE68FFF704FD3070CAE6CE68FFF7AC
:1056A00015FD3070C5E68B68CE681968FFF721FDDF
:1056B0003070BEE6CE68FFF70BFB3070B9E608B578
:1056C000FFF778FE08BD08B50B46027812B1012A33
:1056D00005D008BD0121D868FCF70AFEF9E70421CE
:1056E000D868FCF705FEF4E708B512F04DFF03F0AB
:1056F000CDFB000038B5044610494068FEF712F8AB
:1057000065692069FFF7FEF822460D490AF00EF997
:105710000146284600F0C2FE2069FFF768F840B154
:10572000E168284600F0BEFE0021E068FCF761FE5B
:1057300038BD0121E068FCF7DBFDF1E7949601201C
:10574000C756002010B582B0044602AB03E906003C
:105750009DF80030022B0BD07BBB019B022B16D98E
:10576000032B17D1006A00F08EFA38BBFFF7BCFF9D
:10577000006A00F088FA38B9E36A5A1CE262104AFB
:1057800093421BDDFFF7B0FF0020E06216E01BB97B
:10579000002013E0002011E0006A00F074FA68B9FC
:1057A000206A00F07EFA0378112B01D1012005E078
:1057B000206A00F05EFA012000E0002002B010BD77
:1057C0003689410038B504460A494068FDF7AAFF0A
:1057D0002069FFF797F80546606900F061FE014611
:1057E00028460AF0C9F800221146A068FCF77DF8A7
:1057F00038BD00BF8C960120002300E00133172B39
:1058000015D80C4A12F833208242F7D1094A02EB2C
:10581000C30252788A42F1D8064A02EBC302927858
:105820008A42EBD3034A02EBC3035868704702482D
:10583000704700BFAC9F0120AC9B012010B4002337
:105840001C4606E00A4A02EB430252781444013334
:10585000DBB202789A4206D9054A12F81310027A8E
:105860001142EFD1F3E704615DF8044B704700BFCC
:10587000FC9B012010B528B10446406AFFF704F8EC
:1058800020B910BD4FF0010C07F008FF606AFEF769
:10589000D3FCF6E701B1704708B50AF0C6FF00B1C6
:1058A00008BD0A2008F0CBFF03F0F0FA38B585698F
:1058B000A8690AF031FDD8B12224284612F079FDFA
:1058C00008B144F0080468690AF026FD08B944F0FC
:1058D0000404E86A0AF020FD08B944F04004D5F851
:1058E000B0010AF019FD08B944F08004204638BD23
:1058F0003224E2E770B5D0B10D46064640690AF0A1
:1059000056FC044628460AF0A6FC0146204611F043
:1059100051F8356A20460AF09EFC01462846FEF7FB
:10592000C3FE054620460AF07EFC284670BD4FF0B7
:10593000010C07F0B3FE00002DE9F04383B00446EC
:1059400015460E46D9B9A570E268002A4AD0102E35
:1059500046D8236920782D4901EB4001497801FBA5
:1059600005F52B4981FB051503EB6515642303FB46
:1059700005F5B5FBF2F59D4228BF1D4633E00092C8
:105980000B46244A2449042009F03CF8112E04D97E
:105990002778112F36D8112E0DD8204B53F826100A
:1059A00060680AF05FFC2670731EDBB20F2B13D900
:1059B000112EC9D8C7E7D4F8049094F80280414664
:1059C0003846FFF719FF0246CDF800803B461449E0
:1059D00048460AF070FCE6E72046FFF72FFFE7E7AE
:1059E000657800E00125EDB26570A66A56B1606881
:1059F0000AF031FC2278E36A112A94BF00220122C6
:105A00002946B04703B0BDE8F08300BFFC9B0120EE
:105A10001F85EB51BC9B0120D49B01206CA0012071
:105A2000E09B012070B5F0B10D460646FFF722FF5E
:105A300070690AF0BCFB044628460AF00CFC0146DB
:105A4000204610F0B7FF756A20460AF004FC0146B4
:105A500001231A462846FEF75DFF054620460AF058
:105A6000E2FB284670BD4FF0010C07F017FE000066
:105A700038B5342009F032F80446002505708570E9
:105A800045700AF08BFB606012F046FCA061104884
:105A90000AF020F92062FEF7DBFE6062A56203F0E7
:105AA00091FC84F830000AF079FB606123462A46B5
:105AB0004FF4A05107480AF017FE0546E061064979
:105AC0000AF061FE054928460AF0F2FD204638BD7D
:105AD000A4920120EC9B0120955800200162002037
